:030000000204BA3D
:0C04BA00787FE4F6D8FD75811B02045722
:1003980020202020323020202D20202D0020203A1F
:1003A80020203A004D6F6E54756557656454687522
:0903B80046726953617453756EBD
:10045700C29312009F12040A1204827F327E001296
:070467000425E4F51980FEF5
:0E049200758DFF758BF6D28E308FFDC28F22D6
:10042500D2A3EF1FAC0670011ED39400EC940040DC
:090435000512049280ECC2A3221E
:10043E00D293EF1FAC0670011ED39400EC940040D3
:09044E000512049280ECC2932215
:03046E00120179FF
:10047100EFC4540FFEEF540FFDEE75F00AA42DFFEB
:010481002258
:1003C100AF0F7E00EF640C700AE5097006E5087056
:1003D10002D2A3EF640C4E700CE5097008E50864C5
:0603E1001E7002C2A322FF
:1003E700E50FB5130BE509B51406E5087002D2A3AE
:1003F700E50FB5130DE509B51408E508641E70028D
:03040700C2A3226B
:10009F007F3812022B7F0C12022B7F0612022B7F4E
:1000AF000112022B7F8112022BE4F51AF51B7498B3
:1000BF00251BF5827403351AF583E493FF12037D34
:1000CF00051BE51B7002051AC3940EE51A94004038
:1000DF00DD7FC312022BE4F51AF51B74A5251BF562
:1000EF00827403351AF583E493FF12037D051BE534
:0E00FF001B7002051AC39406E51A940040DD3A
:01010D0022CF
:10022B00C2A5C2A68F80D2A775150075160612043B
:10023B0092E516151670021515D3E5169400E51503
:10024B00940050EAC2A7751500751603120492E5C7
:10025B0016151670021515D3E5169400E5159400C6
:03026B0050EA2234
:10036800FF12022BED75F00A84FFED75F00A84AEDA
:05037800F0EF2430FF4E
:10037D007D097C00D2A5C2A68F80D2A7120492ED72
:0A038D001D70011CED4C70F4C2A7B6
:010397002243
:10040A00C2A2C2A0E4FD7F8E12011212010E1201D5
:0B041A000E12010E7D807F8E02011289
:04010E00E4FD7FA0ED
:02011200A9073B
:10011400C2A2C2A0D2A2E4FBEBC394087480948070
:1001240050227E007401A803088005C333CE33CE69
:10013400D8F9FFE9F582EF558224FF92A1C2A0D23B
:10014400A00B80D4E4FBEBC3940874809480502209
:100154007E007401A803088005C333CE33CED8F9DA
:10016400FFEDF582EF558224FF92A1C2A0D2A00B2D
:0401740080D4C2A0D1
:010178002264
:02017900A907D4
:10017B00E4FDC2A2C2A0D2A2FBEBC394087480948C
:10018B008050227E007401A803088005C333CE3350
:10019B00CED8F9FFE9F582EF558224FF92A1D2A0C8
:1001AB00C2A00B80D4E4FBEBC39408748094805002
:1001BB001730A10DA8037401088002C333D8FC4289
:0A01CB0005D2A0C2A00B80DFAF0533
:0101D5002207
:10048200758901758CD8758AF0D2AFD2A9D28C2227
:10026E007F8112046E8F087F8312046E8F097F8543
:10027E001201791204718F0F7F87120179120471A6
:10028E008F0E7F8B1201791204718F0B7F891201F1
:10029E00791204718F0A7F8D1201791204718F0CFD
:0102AE00222D
:0D04A000EF2480120368EE2430FF02037D7C
:0D04AD00EF24C0120368EE2430FF02037D2F
:1002F000AE05EF2480FF12022BE4F515F516EE751E
:10030000F003A424A9F582E43403F583E5822516DD
:10031000F582E5833515F583E493FF12037D051619
:10032000E51670020515C39403E515940040CF222D
:10033000AD0C7F031204A0AD0A7F061204A0AD0E1F
:100340007F091204A0AD0F7F031204ADAD097F0633
:100350001204ADAD087F091204ADAD0B7F0C120283
:08036000F0AD0D7F0C0204ADAD
:1002AF001204C63095FD1200032095FD1204D0856F
:1002BF00101785111812000E8E108F1185110DC396
:1002CF00E5189511FFE5179510FED3EF941EEE94E8
:1002DF0000400DC2A4E4F5CDF5CCD2AFD2ADD2CA59
:0102EF0022EC
:0A04C600C294D294120492C2942250
:08000300E4F58DF58BD28E228D
:0304D000C28E22B7
:10000E00AF8DEFFEAD8BED7807CEC313CE13D8F9BF
:0C001E00FF7C007D641201D6AE04AF052B
:01002A0022B3
:03000B0002002EC2
:10002E00C0E0C0F0C083C082C0D075D000C000C098
:10003E0001C002C003C004C005C006C007758CD83D
:10004E00758AF012026E120330E519640170031204
:10005E0003E71203C11202AF3090063091032092D3
:10006E001500209002800820910280032092077FC5
:10007E00D07E0712043ED007D006D005D004D003A0
:10008E00D002D001D000D0D0D082D083D0F0D0E03A
:01009E00322F
:03002B000204D3F9
:0304D300C2A4328E
:1001D600BC000BBE0029EF8DF084FFADF022E4CC0D
:1001E600F875F008EF2FFFEE33FEEC33FCEE9DECD6
:1001F600984005FCEE9DFE0FD5F0E9E4CEFD22ED1C
:10020600F8F5F0EE8420D21CFEADF075F008EF2F65
:10021600FFED33FD4007985006D5F0F222C398FD56
:050226000FD5F0EA22F3
:00000001FF
