:03000000020815DE
:0C081500787FE4F6D8FD7581330206F709
:1003120020323020202D20202D202020202020209F
:100322000020202020203A20203A202020202020B7
:100332002000436C6F636B2054696D652020203A66
:1003420020200020202020202020202020202020CB
:10035200202020002020202020204F4E202020205E
:1003620020202020002020202020204F4646202030
:1003720020202020200020202053746F7020436C06
:100382006F636B2020200020205E20202020202070
:1003920020202020202020004D6F6E547565576567
:0D03A2006454687546726953617453756E3A
:1006F700E4F509F517C294F515F516F50AF51CF595
:1007070019F5231206631207641207EA7F327E0087
:0507170012000380FE4A
:0E07FA00758DFF758BF6D28E308FFDC28F226B
:1007B100D3EF9400EE9400400A1207FAEF1F70F095
:0307C1001E80EDAA
:0107C4002212
:08000300D2A31207B1C2A3222F
:04077F007FD07E07A2
:10078300D294C2A4758CFF758AFFD2AFD2A9D28C42
:060793001207B1C294221E
:0307C50012058595
:1007C800EFC4540FFEEF540FFDEE75F00AA42DFF91
:0107D80022FE
:10074100E512B51B0BE50BB51D06E5087002D2A33A
:10075100E512B51B0DE50BB51D08E508641E700219
:03076100C2A3220E
:100663007F381207997F0C1207997F061207997F2B
:10067300011207997F1E7E001207B17BFF7A03796F
:1006830012E41203AF7BFF7A037923E4FD7F02FEBA
:030693000203B3AC
:10079900C2A5C2A68F80D2A77F067E001207B1C26A
:0807A900A77F037E000207B1E7
:1006C700FF120799ED75F00A84FFED75F00A84AE05
:0506D700F0EF2430FFEC
:1006DC007D097C00D2A5C2A68F80D2A71207FAEDA5
:0A06EC001D70011CED4C70F4C2A754
:0106F60022E1
:10076400C2A2C2A0E4FD7F8E1204B91204B5120421
:0B077400B51204B57D807F8E0204B931
:0404B500E4FD7FA043
:0204B900A90791
:1004BB00C2A2C2A0D2A2E4FBEBC3940874809480C6
:1004CB0050227E007401A803088005C333CE33CEBF
:1004DB00D8F9FFE9F582EF558224FF92A1C2A0D291
:1004EB00A00B80D4E4FBEBC394087480948050225F
:1004FB007E007401A803088005C333CE33CED8F930
:10050B00FFEDF582EF558224FF92A1C2A0D2A00B82
:04051B0080D4C2A026
:01051F0022B9
:02058500A907C4
:10058700E4FDC2A2C2A0D2A2FBEBC394087480947C
:100597008050227E007401A803088005C333CE3340
:1005A700CED8F9FFE9F582EF558224FF92A1D2A0B8
:1005B700C2A00B80D4E4FBEBC394087480948050F2
:1005C7001730A10DA8037401088002C333D8FC4279
:0A05D70005D2A0C2A00B80DFAF0523
:0105E10022F7
:1007EA0075890175CDD875CCF0D2AFD2ADD2CA22F7
:1005E2007F811207C58F087F831207C58F0B7F8516
:1005F2001205851207C88F127F871205851207C858
:100602008F117F8B1205851207C88F0E7F89120505
:10061200851207C88F0D7F8D1205851207C88F0FAF
:0106220022B5
:0407D900AD1B7F0BCA
:0D07DD00EF24801206C7EE2430FF0206DC78
:0D080800EF24C01206C7EE2430FF0206DC0C
:10062300AB05EF2480FF120799E4F51EF51FEB7568
:10063300F003A42497F582E43403F583E582251FB0
:10064300F582E583351EF583E493FF1206DC051F6F
:10065300E51F7002051EC39403E51E940040CF22DC
:10069600AD0F7F031207DDAD0D7F061207DDAD112D
:1006A6007F091207DDAD127F03120808AD0B7F0626
:1006B600120808AD087F09120808AD0E7F0C020665
:0106C6002310
:0403AF00FD7F01FECF
:0C03B3008E2C8F2D8D2E8B2F8A308931DF
:1003BF00E52D6401452C7032E52E2480FF1207993C
:1003CF00E4F532F533AB2FAA30A93185338285326C
:1003DF0083120433FF1206DC0533E5337002053256
:1003EF00C39410E532940040DC22E52D6402452CC5
:1003FF007031E52E24C0FF120799E4F532F533ABC7
:10040F002FAA30A931853382853283120433FF122C
:10041F0006DC0533E53370020532C39410E53294E0
:03042F000040DCAE
:0104320022A7
:100520001208213095FD12082B2095FD1208338505
:10053000132085142112000E8E138F14851A09853D
:10054000141AD3E5219514E52095134015E521955E
:1005500014FFE5209513FED3EF9446EE940040245B
:100560008014C3E5149521FFE5139520FED3EF9485
:1005700046EE9400400EC2A4758CFF758AFFD2AF80
:05058000D2A9D28C227B
:0A082100C296D2961207FAC2962280
:08082B00E4F58DF58BD28E225D
:03083300C28E2250
:10000E00AF8DEFFEAD8BED7806CEC313CE13D8F9C0
:0C001E00FF7C007D64120460AE04AF059E
:01002A0022B3
:03002B0002002EA2
:10002E00C0E0C0F0C083C082C0D075D000C000C098
:10003E0001C002C003C004C005C006C00775CDD8FC
:10004E0075CCF01205E2E5157008F50C1206960255
:10005E000102E51564017071E50C70121207D9AD3D
:10006E001D7F0E1207DD7BFF7A037945800FE50CAD
:10007E006401700D1207D97BFF7A0379897D09809F
:10008E003FE50C6402700D1207D97BFF7A03798964
:10009E007D0A802CE50C64037011AD1D7F0E1207D6
:1000AE00DD7BFF7A0379897D0C8015E50C64047085
:1000BE0043AD1D7F0E1207DD7BFF7A0379897D0D1F
:1000CE007F027E001203B3802BE51564027025F5C6
:1000DE000CAD0A7F03120808AD1C7F06120808AD8E
:1000EE00197F09120808E51664017008C2A4758C00
:1000FE00FF758AFFE5236401700312074112052084
:10010E00C3E51A940F748094805012C3E509940FBE
:10011E007480948050077F107E27120003E51664CA
:10012E00017015C3E5129522F50AC3E50B9518F576
:10013E001CC3E5089510F51930900C3091093092DA
:10014E00063093030202F7751E00751F1E1207FA82
:10015E00E51F151F7002151ED3E51F9400E51E94B2
:10016E000050EA20906312077FE5156403600405D2
:10017E00158003751500E51570087BFF7A0379125B
:10018E008033E5156401701E7BFF7A037934120308
:10019E00AFE52364017BFF70067A03795680207ADF
:1001AE00037967E48019E515640260030202F77BA8
:1001BE00FF7A0379781203AF7BFF7A037923E4FD8C
:1001CE007F02FE1203B30202F720916512077FE54C
:1001DE00156401700CE52370047F0180027F008F8F
:1001EE0023E52364017BFF70067A03795680057A36
:1001FE00037967E4FD7F02FE1203B3E51564026026
:10020E00030202F7E51664017003FF80027F018F7F
:10021E0016EF640160030202F7C3E5089519F510A5
:10022E00C3E50B951CF518C3E512950AF5220202DB
:10023E00F720923012077FAF157E00EF6401701227
:10024E00E50C64047003FD8004050CAD0C8D0C02EE
:10025E0002F7EF64024E60030202F7F50AF51CF591
:10026E00190202F73093030202F712077FE51564B5
:10027E00017076AF0CEF607164017019740A251B62
:10028E00F51B75F00A84D394027480948040067432
:10029E00E2251BF51BE50C64027010051BD3E51B54
:1002AE009417748094804003751B00AF0C7E00EF92
:1002BE0064037019740A251DF51D75F00A84D39414
:1002CE000574809480400674C4251DF51DEF6404EA
:1002DE004E7016051DE51D75F00A84D3E5F09417D2
:1002EE00748094804003751D00D007D006D005D0D1
:1002FE0004D003D002D001D000D0D0D082D083D091
:04030E00F0D0E03219
:03000B0002071CCD
:10071C00C0E0C0D075D000C007AF170517D3EF9459
:10072C0096748094804007D2A4751700C28CD007B1
:05073C00D0D0D0E03236
:10043300BB010CE58229F582E5833AF583E022507E
:1004430006E92582F8E622BBFE06E92582F8E222C8
:0D045300E58229F582E5833AF583E49322E2
:10046000BC000BBE0029EF8DF084FFADF022E4CC80
:10047000F875F008EF2FFFEE33FEEC33FCEE9DEC49
:10048000984005FCEE9DFE0FD5F0E9E4CEFD22ED8F
:10049000F8F5F0EE8420D21CFEADF075F008EF2FD9
:1004A000FFED33FD4007985006D5F0F222C398FDCA
:0504B0000FD5F0EA2267
:00000001FF
