:03000000020D0EE0
:0C0D0E00787FE4F6D8FD758140020D5599
:10082600FC1704AE530A57485526BD0D26500D95A4
:100836004446AAB9056A4D09AD4224AEB604AE4A8D
:100846006A4DBE0A4D520D25465D52BA0B544E0DE9
:100856006A43296D37095B4B749BC10497540A4B55
:10086600485B25BC06A55006D4454ADAB802B64D03
:100876000957422497B704974A664B3E0D4A510ED4
:10088600A54656D4BA05AD4E02B644393738092EB8
:100896004B7C96BF0C95530D4A486DA53B0B554FA7
:1008A600056A454AADB9025D4D092D422C95B60A39
:1008B600954A7B4ABD06CA510B5546555ABB04DAC2
:1008C6004E0A5B43352BB8052B4C8A953F0E955245
:1008D60006AA487AD53C0AB54F04B6454A57390A9E
:1008E600574D0526423E93350D954975AABE056AB4
:1008F60051096D4654AEBB04AD4F0A4D434D26B764
:100906000D254B8D52BF0B54520B6A47696D3C093E
:100916005B50049B454A4BB90A4B4DAB25C206A515
:100926005406D4496ADA3D0AB6510937465497BB8C
:1009360004974F064B4436A5370EA54A86B2BF0527
:10094600AC530AB6475936BC092E500C96454D4A4B
:10095600B80D4A4C0DA54125AAB6056A497AADBD22
:10096600025D52092D475C95BA0A954E0B4A434BD8
:1009760055370AD54A955ABF04BA530A5B48652BC0
:10098600BC052B500A9345474AB906AA4C0AD541DD
:1009960024DAB604B64A69573D0A4E510D26465E1C
:1009A600933A0D534D05AA4336B537096D4BB4AE90
:1009B600BF04AD530A4D486D25BC0D254F0D52445D
:1009C6005DAA380B5A4C056D4124ADB6049B4A7A94
:1009D6004BBE0A4B510AA5465B52BA06D24E0ADAFC
:1009E60042355B3709374B8497C1049753064B480A
:1009F60066A53C0EA54F06B2444AB6380AAE4C0967
:100A06002E423C97350C96497D4ABD0D4A510DA59F
:100A16004555AABA056A4E0A6D43452EB7052D4BB4
:100A26008A95BF0A95530B4A476B553B0AD54F0526
:100A36005A454A5D380A5B4C052B423A93B60693F3
:100A4600497729BD06AA510AD54654DABA04B64EE4
:100A56000A57434527380D264A8E933E0D52520DAE
:100A6600AA4766B53B056D4F04AE454A4EB90A4DD9
:100A76004C0D15412D92B5001F3B5A7897B5D4F30E
:100A860001110130014E00030306010406020500B0
:100A96000305323020202D20202D2020200020206C
:100AA6003A20203A20200074696D65723A20202091
:100AB600202D20202D202000202020202020202036
:0E0AC60020202020202020200074696D650073
:100FF700C186022D00000126640125000129000198
:10100700230C012200014000C105C108C103C10230
:06101700C104C101C10784
:100F100074642FFF1313543F2F75F00784AEF0EE67
:100F20002BFEED900A8B932EFEEF5403700BEDC356
:100F300094037480948050011EEE75F0078485F050
:010F40002F81
:010F4100228D
:08101E00C206C2A37F147E008C
:10102600D3EF9400EE940040147D6E7C00ED1D70AD
:0D103600011CED4C70F7EF1F70E61E80E30B
:01104300228A
:10110300C2A5C2A68F807F017E00121026D2A77FC0
:09111300017E00121026C2A72281
:08106A00FF121103EA2430FF1C
:10107200D2A5C2A68F807F017E00121026D2A77F42
:09108200017E00121026C2A72213
:100E64007F381211037F0C1211037F061211037FC6
:100E7400011211037F81121103E4F53EC3E53E9490
:100E84000E74809480500EE53E900A9893FF1210E1
:100E940072053E80E77FC4121103E4F53EC3E53ECC
:100EA400940874809480500EE53E900AA493FF1237
:070EB4001072053E80E722E9
:06104400C2A2C2A0D2A26C
:10104A00EFD2A2753E08D3E53E94007480948040A6
:10105A000EA2E092A1C2A0D2A0C313153E80E7223D
:10108B00D2A2753E08D3E53E940074809480400E46
:10109B00A2A192E7D2A0C2A0C313153E80E7FF2204
:100F7200AD2C7F06120FD1E52C75F00A84C454F013
:100F8200FFE52C75F00A84EF25F0F530E4FD7F8E45
:0F0F9200AE05121044AF0612104AD2A0C2A2221E
:0A000E0012104412108BD2A0C2A2FF
:0100180022C5
:0311310012000E9B
:10113400EFC4540FFEEF540FFDEE75F00AA42DFF1B
:011144002288
:1010C900C2A2C2A0120F8E7FA0120F927FA0120F90
:0D10D900927FA0120F927D807F8E020F92F9
:040FCD00AD317F03C0
:020FD100AB076C
:100FD300ED75F00A84A9F0ED75F00A84FA7FC21268
:100FE30011037F20121072EB24C412106AE924301B
:040FF300FF02107277
:100FA100AD237F08120FB3AD227F0B120FB3AD40FB
:020FB1007F0EB1
:100FB300ED75F00A84ABF0ED75F00A84FAEF24C006
:0A0FC30012106AEB2430FF021072D6
:0410AB00AD3C7F09D0
:1010AF00ED75F00A84ABF0ED75F00A84FAEF248049
:0A10BF0012106AEB2430FF021072D9
:0B0C7300AB3CAD38AF2B120F10AF2FC1
:100C7E00AB077F8C121103EBB407004003020D0D7E
:100C8E00900C95F8282873020CF9020CAA020CB3EA
:100C9E00020CC1020CCF020CDD020CEB7F4D1210C8
:100CAE00727F4F804D7F541210727F551210727FDB
:100CBE004580447F571210727F451210727F448018
:100CCE00367F541210727F481210727F5580287F23
:100CDE00461210727F521210727F49801A7F531281
:100CEE0010727F541210727F41800C7F531210725B
:100CFE007F551210727F4E1210727F2012107222C8
:10001E0020B35B7F097E0012102620B351C206E585
:10002E00327048E53F7044C2A37F14FE121026D2F0
:10003E00A3300408C204C28ED2A3802F0539AF3973
:10004E007E00EF64027002D28EEF64034E701CF5D8
:10005E0032F53FF539C207C201F529F525F52DF523
:10006E002E7FCC1211037F2012107230B3FD30B0F0
:10007E000302017BE5396402700302017B7F097E76
:10008E000012102630B00302017B12101ED2A330D4
:10009E00B0FDE5396401705F053FE53F640470080B
:1000AE00F53FF532C28ED205E53F14603914603A41
:1000BE0014603B2403600302017B7F0C1211037F4B
:1000CE00C0121103E4F53EC3E53E94107480948093
:1000DE00500EE53E900AAD93FF121072053E80E77A
:1000EE00120FA102017B7FCF80067FCC80027FC9D9
:1000FE001211037F0F8059E53970720532E53264B3
:10010E00077002F532E532B407005061900121F814
:10011E0028287302016302013602014C02015002CB
:10012E00015402015802015CC28C7FCB1211037F75
:10013E000F121103120F79E5304480FD80237FC822
:10014E00800E7FC5800A7F8A80067F8780027F842B
:10015E0012110380187F0C121103D28C120F79AD7D
:10016E00307F80120F927D807F8E120F92E532705B
:10017E00030206F6E53F60030206F630B103020401
:10018E00407F0AFE12102630B10302044012101EE8
:10019E00D2A330B1FDE53224FE603C1460681470C9
:1001AE00030202471470030203061470030203B81D
:1001BE0024056003020440052CE52C643C7002F516
:1001CE002C120F72AD307F80120F927D807F8E12B7
:1001DE000F927FCB02043D0531E531643C7002F590
:1001EE0031120FCDE53175F00A84C454F0FFE531BC
:1001FE00120F85AD307F82120F927D807F8E120F8F
:10020E00927FC802043D0536E53664187002F53655
:10021E00AD36E4FF120FD1E53675F00A84C454F002
:10022E00FFE536120F85AD307F84120F927D807FF1
:10023E008E120F927FC502043D053CAF38EF640C61
:10024E00601EEF640A6019EF64086014EF640760C3
:10025E000FEF6405600AEF64036005EF6401700D33
:10026E00C3E53C94207480948040658060E53864DA
:10027E0002600DC3E53C941F748094804052804D03
:10028E00E52B5403703CE52B75F06484E5F0702586
:10029E00AF2BFE7C017D90120EBBED4C7032AF3C4D
:1002AE00FEEF641E70028025C3EF941DEE648094F1
:1002BE0080401D8018D3E53C941D748094804010BE
:1002CE00800BC3E53C941D748094804003753C0103
:1002DE00120C731210ABE53C75F00A84C454F0FF97
:1002EE00E53C120F85AD307F86120F927D807F8E9A
:1002FE00120F927F8A02043D0538E538640D7003B3
:10030E00753801AF38EF640B600FEF6409600AEFC8
:10031E0064066005EF64047010D3E53C941E74808F
:10032E009480405A753C1E8052E5386402704FE549
:10033E002B54037038E52B75F06484E5F0701EAF16
:10034E002BFE7C017D90120EBBED4C7031D3E53C43
:10035E00941D748094804026753C1D801ED3E53C10
:10036E00941D748094804016753C1D800ED3E53C20
:10037E00941C748094804006753C1C1210AB120CB9
:10038E0073AD387F061210AFE53875F00A84C45489
:10039E00F0FFE538120F85AD307F88120F927D8009
:1003AE007F8E120F927F8702043D052BE52B64642E
:1003BE007002F52BE5386402704CE52B5403703552
:1003CE00E52B75F06484E5F0701BAF2BFE7C017D90
:1003DE0090120EBBED4C702ED3E53C941D748094A0
:1003EE00804023800BD3E53C941D7480948040168E
:1003FE00753C1D800ED3E53C941C748094804006A1
:10040E00753C1C1210AB120C73AD2B7F031210AF88
:10041E00E52B75F00A84C454F0FFE52B120F85AD61
:10042E00307F8C120F927D807F8E120F927F8412FE
:10043E00110330B2030206F67F0A7E001210263038
:10044E00B2030206F612101ED2A330B2FDE532241C
:10045E00FE604114607214700302050E14700302E4
:10046E0005B1147003020661240560030206F61539
:10047E002CAF2C7E00BEFF06BFFF03752C3B120F68
:10048E0072AD307F80120F927D807F8E120F927F21
:10049E00CB0206F31531AF317E00BEFF06BFFF0360
:1004AE0075313B120FCDE53175F00A84C454F0FF5F
:1004BE00E531120F85AD307F82120F927D807F8ED7
:1004CE00120F927FC80206F31536AF367E00BEFFBE
:1004DE0006BFFF03753617AD36E4FF120FD1E536B2
:1004EE0075F00A84C454F0FFE536120F85AD307FE7
:1004FE0084120F927D807F8E120F927FC50206F3BB
:10050E00153CAF38EF640C601EEF640A6019EF649F
:10051E00086014EF6407600FEF6405600AEF640370
:10052E006005EF64017009E53C7050753C1F804B0F
:10053E00E53864026009E53C7041753C1E803CE57F
:10054E002B5403702FE52B75F06484E5F0701CAF0F
:10055E002BFE7C017D90120EBBED4C701EAF3CFE4F
:10056E00EF7002800AEF4E7012800DE53C700C7534
:10057E003C1D8007E53C7003753C1C120C73121079
:10058E00ABE53C75F00A84C454F0FFE53C120F85D0
:10059E00AD307F86120F927D807F8E120F927F8AF2
:1005AE000206F31538E538700375380CAF38EF6472
:1005BE000B600FEF6409600AEF64066005EF6404D8
:1005CE007010D3E53C941E74809480405A753C1E86
:1005DE008052E5386402704FE52B54037038E52BDA
:1005EE0075F06484E5F0701EAF2BFE7C017D9012D9
:1005FE000EBBED4C7031D3E53C941D74809480405D
:10060E0026753C1D801ED3E53C941D74809480405D
:10061E0016753C1D800ED3E53C941C74809480406E
:10062E0006753C1C1210AB120C73AD387F061210FF
:10063E00AFE53875F00A84C454F0FFE538120F8523
:10064E00AD307F88120F927D807F8E120F927F8742
:10065E000206F3152BAF2B7E00BEFF06BFFF037500
:10066E002B63E52B64647002F52BE5386402704C45
:10067E00E52B54037035E52B75F06484E5F0701BA3
:10068E00AF2BFE7C017D90120EBBED4C702ED3E590
:10069E003C941D748094804023800BD3E53C941DC4
:1006AE00748094804016753C1D800ED3E53C941CDE
:1006BE00748094804006753C1C1210AB120C73AD06
:1006CE002B7F031210AFE52B75F00A84C454F0FF94
:1006DE00E52B120F85AD307F8C120F927D807F8EB1
:1006EE00120F927F84121103E53F70030207CEE5CD
:1006FE003260030207CE20B15A7F0AFE1210262066
:10070E00B15112101ED2A330B1FDE53F24FE601888
:10071E0014602A2402703C0540E540643C7002F5EA
:10072E0040120FAF7FCF80280522E522643C700275
:10073E00F522AD227F0B120FB37FCC80130523E57C
:10074E002364187002F523AD237F08120FB37FC9FF
:10075E0012110320B26A7F0A7E0012102620B260A8
:10076E0012101ED2A330B2FDE53F24FE601D1460B0
:10077E00342402704B1540AF407E00BEFF06BFFF13
:10078E000375403B120FAF7FCF80321522AF227E12
:10079E0000BEFF06BFFF0375223BAD227F0B120F7B
:1007AE00B37FCC80181523AF237E00BEFF06BFFF9C
:1007BE0003752317AD237F08120FB37FC9121103E0
:1007CE00E5396402705120B01D7F0AFE12102620FA
:1007DE00B014B20120010DC207E4F529F525F52D5F
:1007EE00F52E8002D20730B0FD20B10F7F0A7E00B9
:1007FE0012102620B105300702B20130B1FD20B231
:10080E00137F0A7E0012102620B209E4F529F52581
:08081E00F52DF52E30B2FD228C
:1010E600758911E4F58CF58A758DD8758BEFD2AFBD
:0D10F600D2A9D2ABD28AC288D28CC28E227F
:100F4200E536B5230DE531B52208E52C7004D2044F
:100F5200D28EE536B52318E5222401FFE433FE7C68
:100F620000EFB5310AECB50606C204C28ED2A32246
:10111C00C2A37F057E00121026D2A30534E534B598
:05112C003A02C2082296
:100D9A007590FF120E641210C91210E6D2B7C2A3E0
:100DAA007F507E00121026D2A312001EA20692B70E
:100DBA00300503120F42E531702AE52C7026AF3652
:100DCA00FED3EF940C748094804008E53624F4F541
:100DDA003A800CEF4E7005753A0C800385363A85D9
:100DEA002C2AD2083008C212111C12001EE52A65EC
:080DFA002C60F7852C2A80B162
:03000B00020AD412
:100AD400C0E0C0F0C083C082C0D075D000C000C0E8
:100AE40001C002C003C004C005C006C007E53964E4
:100AF400027003020BE17F811211318F2C7F83126C
:100B040011318F317F8512000E1211348F367F8799
:100B140012000E1211348F3C7F8912000E12113410
:100B24008F387F8D12000E1211348F2B200609E5A9
:100B340033652C6003852C33E5396401706F7FC005
:100B4400121103753E00C3E53E94107480948050E6
:100B54000EE53E900AAD93FF121072053E80E71237
:100B64000FA112001EE539640160F77FC012110362
:100B7400753E00C3E53E941074809480500EE53EAB
:100B8400900ABE93FF121072053E80E77FC41211D3
:100B940003753E00C3E53E9408748094805028E5B4
:100BA4003E900AA493FF121072053E80E77532004E
:100BB400753F00753900AD2C7F06120FD1120FCD91
:100BC400AD36E4FF120FD11210ABAD387F06121010
:100BD400AFAD2B7F031210AF120C738077852E26D6
:100BE4007FC4121103E52975F00A842430FF121022
:100BF40072E52975F00A84E5F02430FF1210727F43
:100C04003A121072E52575F00A842430FF1210722E
:100C1400E52575F00A84E5F02430FF1210727F3A5E
:100C2400121072AE2DAF2E7C007D64120EBB7E00BE
:100C34007F0ACFCDCFCECCCE120EBBEF2430FF1225
:100C44001072AE2DAF2E7C007D0A120EBBED243047
:100C5400FF121072D007D006D005D004D003D00202
:0F0C6400D001D000D0D0D082D083D0F0D0E032F9
:03001B00020E02D0
:100E0200C0E0C0D0758DD8758BEFD28E30040C0542
:100E12003DE53D640A7004F53DB2A330013FC3E5F0
:100E22002E9464E52D9400500A052EE52E702E05B1
:100E32002D802A752D00752E00C3E525943B748004
:100E42009480500405258015752500C3E529943B3F
:100E520074809480500405298003752900D0D0D075
:020E6200E0327C
:100D1A00020D9AE493A3F8E493A34003F68001F248
:100D2A0008DFF48029E493A3F85407240CC8C333DA
:100D3A00C4540F4420C8834004F456800146F6DFA9
:100D4A00E4800B0102040810204080900FF7E47E33
:100D5A00019360BCA3FF543F30E509541FFEE4939E
:100D6A00A360010ECF54C025E060A840B8E493A365
:100D7A00FAE493A3F8E493A3C8C582C8CAC583CA90
:100D8A00F0A3C8C582C8CAC583CADFE9DEE780BE48
:01101D0000D2
:100EBB00BC000BBE0029EF8DF084FFADF022E4CC1B
:100ECB00F875F008EF2FFFEE33FEEC33FCEE9DECE4
:100EDB00984005FCEE9DFE0FD5F0E9E4CEFD22ED2A
:100EEB00F8F5F0EE8420D21CFEADF075F008EF2F74
:100EFB00FFED33FD4007985006D5F0F222C398FD65
:050F0B000FD5F0EA2201
:00000001FF
